{
  "contractName": "Adoption",
  "abi": [
    {
      "constant": true,
      "inputs": [
        {
          "internalType": "uint256",
          "name": "",
          "type": "uint256"
        }
      ],
      "name": "adopters",
      "outputs": [
        {
          "internalType": "address",
          "name": "",
          "type": "address"
        }
      ],
      "payable": false,
      "stateMutability": "view",
      "type": "function"
    },
    {
      "constant": false,
      "inputs": [
        {
          "internalType": "uint256",
          "name": "petId",
          "type": "uint256"
        }
      ],
      "name": "buyGpu",
      "outputs": [
        {
          "internalType": "uint256",
          "name": "",
          "type": "uint256"
        }
      ],
      "payable": false,
      "stateMutability": "nonpayable",
      "type": "function"
    },
    {
      "constant": true,
      "inputs": [],
      "name": "getAdopters",
      "outputs": [
        {
          "internalType": "address[16]",
          "name": "",
          "type": "address[16]"
        }
      ],
      "payable": false,
      "stateMutability": "view",
      "type": "function"
    },
    {
      "constant": true,
      "inputs": [],
      "name": "getCurrentOrders",
      "outputs": [
        {
          "internalType": "address[16]",
          "name": "",
          "type": "address[16]"
        }
      ],
      "payable": false,
      "stateMutability": "view",
      "type": "function"
    },
    {
      "constant": true,
      "inputs": [],
      "name": "getCurrentUser",
      "outputs": [
        {
          "internalType": "address",
          "name": "",
          "type": "address"
        }
      ],
      "payable": false,
      "stateMutability": "view",
      "type": "function"
    }
  ],
  "bytecode": "0x608060405234801561001057600080fd5b5061040d806100206000396000f3fe608060405234801561001057600080fd5b50600436106100575760003560e01c80633de4eb171461005c57806343ae37c3146100a257806343ae80d3146100ec578063c8841ff81461015a578063f5d4a2b1146101a0575b600080fd5b6100646101e2565b6040518082601060200280838360005b8381101561008f578082015181840152602081019050610074565b5050505090500191505060405180910390f35b6100aa610263565b604051808273ffffffffffffffffffffffffffffffffffffffff1673ffffffffffffffffffffffffffffffffffffffff16815260200191505060405180910390f35b6101186004803603602081101561010257600080fd5b810190808035906020019092919050505061026b565b604051808273ffffffffffffffffffffffffffffffffffffffff1673ffffffffffffffffffffffffffffffffffffffff16815260200191505060405180910390f35b61016261029e565b6040518082601060200280838360005b8381101561018d578082015181840152602081019050610172565b5050505090500191505060405180910390f35b6101cc600480360360208110156101b657600080fd5b8101908080359060200190929190505050610344565b6040518082815260200191505060405180910390f35b6101ea6103b5565b6000601080602002604051908101604052809291908260108015610259576020028201915b8160009054906101000a900473ffffffffffffffffffffffffffffffffffffffff1673ffffffffffffffffffffffffffffffffffffffff168152602001906001019080831161020f575b5050505050905090565b600030905090565b6000816010811061027857fe5b016000915054906101000a900473ffffffffffffffffffffffffffffffffffffffff1681565b6102a66103b5565b6102ae6103b5565b60008090505b600f81101561033c57600081601081106102ca57fe5b0160009054906101000a900473ffffffffffffffffffffffffffffffffffffffff168282601081106102f857fe5b602002019073ffffffffffffffffffffffffffffffffffffffff16908173ffffffffffffffffffffffffffffffffffffffff168152505080806001019150506102b4565b508091505090565b60008082101580156103575750600f8211155b61036057600080fd5b336000836010811061036e57fe5b0160006101000a81548173ffffffffffffffffffffffffffffffffffffffff021916908373ffffffffffffffffffffffffffffffffffffffff160217905550819050919050565b60405180610200016040528060109060208202803883398082019150509050509056fea265627a7a72315820dc5e3feed7c9a86c0ed6cb6ace380bda53c483856912f5cd4cfded7d8398647564736f6c63430005100032",
  "source": "pragma solidity ^0.5.0;\n\n\n\ncontract Adoption {\n\taddress[16] public adopters;\n\t\n\n\t// Adopting a pet\n\tfunction buyGpu(uint petId) public returns (uint) {\n\t\trequire(petId >= 0 && petId <= 15);\n\n\t\tadopters[petId] = msg.sender;\n\n\t\treturn petId;\n\t}\n\n\t// Retrieving the adopters\n\tfunction getAdopters() public view returns (address[16] memory) {\n  \t\treturn adopters;\n\t}\n\n\t\tfunction getCurrentOrders() public view returns (address[16] memory) {\n  \t\t\n\n\t\taddress[16] memory buyed;\n\n\t\tfor(uint i=0;i<15;i++){\n\t\t\t//if(address(this)!=adopters[i]){\n\t\t\t\tbuyed[i]=adopters[i];\n\t\t\t//}\n\t\t\t//else{\n\t\t\t//\tbuyed[i]=address(0);\n\t\t\t//}\n\t\t}\n\t\t\n\n\t\treturn buyed;\n\t}\n\n\n\n\t\t\tfunction getCurrentUser() public view returns (address) {\n  \t\t\n\t\t\n\n\t\treturn address(this);\n\t}\n}\n",
  "sourcePath": "/home/martacoiro/Scrivania/MusicConsole/contracts/Adoption.sol",
  "compiler": {
    "name": "solc",
    "version": "0.5.16+commit.9c3226ce.Emscripten.clang"
  },
  "schemaVersion": "3.4.16",
  "updatedAt": "2024-05-25T17:11:09.533Z",
  "networkType": "ethereum",
  "devdoc": {
    "methods": {}
  },
  "userdoc": {
    "methods": {}
  }
}